:100000000C9446000C9465000C9465000C946500FB
:100010000C9465000C9465000C9465000C946500CC
:100020000C9465000C9465000C9465000C946500BC
:100030000C9465000C94DB000C9465000C94650036
:100040000C9465000C9465000C9465000C9465009C
:100050000C9465000C9465000C9465000C9465008C
:100060000C9465000C9465000C9465000C9465007C
:100070000C9465000C9465000C9465000C9465006C
:100080000C9465000C9465000C94650011241FBE4F
:10009000CFEFD0E4DEBFCDBF11E0A0E0B1E0E0EBF8
:1000A000F3E000E00BBF02C007900D92A231B10750
:1000B000D9F711E0A2E1B1E001C01D92A931B10769
:1000C000E1F70E9469010C94D6010C940000CF93D3
:1000D000DF9300D01F92CDB7DEB789837B836A831D
:1000E00089818A3031F48A819B81BC018DE00E9434
:1000F000670080EC90E0FC018081882F90E08072A6
:1001000099270097B1F386EC90E02981FC012083C8
:1001100080E090E00F900F900F90DF91CF910895C5
:10012000CF93DF93CDB7DEB781E890E02BE0FC0101
:10013000208388E890E02DE730E0FC0131832083C4
:100140008FE690E022E0FC01208384E890E0FC014F
:100150001182108280910E0190910F01A0911001E7
:10016000B09111018093130190931401A093150194
:10017000B09316018FE590E02FE530E0F901208182
:100180002068FC012083DF91CF910895CF93DF9306
:10019000CDB7DEB781E890E0FC011082DF91CF910E
:1001A0000895CF93DF93CDB7DEB781E0809312013E
:1001B000DF91CF9108951F920F9200905F000F92F0
:1001C000112400905B000F922F933F934F935F9306
:1001D0006F937F938F939F93AF93BF93EF93FF930F
:1001E000CF93DF93CDB7DEB78091130190911401C7
:1001F000A0911501B09116010197A109B109809351
:10020000130190931401A0931501B09316018091EE
:10021000130190911401A0911501B091160100975E
:10022000A105B10591F40E94D10080910E01909139
:100230000F01A0911001B0911101809313019093CF
:100240001401A0931501B0931601DF91CF91FF9196
:10025000EF91BF91AF919F918F917F916F915F913E
:100260004F913F912F910F9000925B000F90009261
:100270005F000F901F901895CF93DF9300D000D0B0
:10028000CDB7DEB769837A838B839C8389819A811A
:10029000AB81BC8180930E0190930F01A09310015C
:1002A000B093110180910E0190910F01A091100166
:1002B000B09111018093130190931401A093150143
:1002C000B09316010F900F900F900F90DF91CF9188
:1002D0000895CF93DF9300D000D0CDB7DEB784E28E
:1002E00090E02FEFFC01208385E290E0FC0110827A
:1002F0008AE290E02FEFFC0120838BE290E0FC018A
:10030000108287E290E02FEFFC01208388E290E0EA
:10031000FC01108268EE73E080E090E00E943C01F6
:100320000E94900084E08A8380E18B8380E48C8348
:10033000198285E290E021E0FC01208389818330ED
:1003400008F0198285E290E02981222F30E0AE0189
:100350004E5F5F4F240F351FF9012081FC01208380
:1003600085E290E025E230E0F90120812160FC0186
:10037000208389818F5F898388E290E0FC0120815E
:100380002F5FFC01208388E290E0FC0180818430B3
:1003900028F088E290E021E0FC01208300008091B9
:1003A00012018823E1F310921201C8CFF894FFCF15
:1003B00000000002000000006700000000000100D3
:0203C00000003B
:00000001FF
