:100000000C9446000C9465000C9465000C946500FB
:100010000C9465000C9465000C9465000C946500CC
:100020000C9465000C9465000C9465000C946500BC
:100030000C9465000C94DB000C9465000C94650036
:100040000C9465000C9465000C9465000C9465009C
:100050000C9465000C9465000C9465000C9465008C
:100060000C9465000C9465000C9465000C9465007C
:100070000C9465000C9465000C9465000C9465006C
:100080000C9465000C9465000C94650011241FBE4F
:10009000CFEFD0E4DEBFCDBF11E0A0E0B1E0E2ECF5
:1000A000F5E000E00BBF02C007900D92A431B1074C
:1000B000D9F711E0A4E1B1E001C01D92A632B10769
:1000C000E1F70E9494020C94DF020C940000CF939D
:1000D000DF9300D01F92CDB7DEB789837B836A831D
:1000E00089818A3031F48A819B81BC018DE00E9434
:1000F000670080EC90E0FC018081882F90E08072A6
:1001000099270097B1F386EC90E02981FC012083C8
:1001100080E090E00F900F900F90DF91CF910895C5
:10012000CF93DF93CDB7DEB781E890E02BE0FC0101
:10013000208388E890E02DE730E0FC0131832083C4
:100140008FE690E022E0FC01208384E890E0FC014F
:100150001182108280910E0190910F01A0911001E7
:10016000B09111018093150190931601A09317018E
:10017000B09318018FE590E02FE530E0F901208180
:100180002068FC012083DF91CF910895CF93DF9306
:10019000CDB7DEB781E890E0FC011082DF91CF910E
:1001A0000895CF93DF93CDB7DEB781E0809314013C
:1001B000DF91CF9108951F920F9200905F000F92F0
:1001C000112400905B000F922F933F934F935F9306
:1001D0006F937F938F939F93AF93BF93EF93FF930F
:1001E000CF93DF93CDB7DEB78091150190911601C3
:1001F000A0911701B09118010197A109B10980934D
:10020000150190931601A0931701B09318018091E6
:10021000150190911601A0911701B0911801009756
:10022000A105B10591F40E94D10080910E01909139
:100230000F01A0911001B0911101809315019093CD
:100240001601A0931701B0931801DF91CF91FF9190
:10025000EF91BF91AF919F918F917F916F915F913E
:100260004F913F912F910F9000925B000F90009261
:100270005F000F901F901895CF93DF9300D000D0B0
:10028000CDB7DEB769837A838B839C8389819A811A
:10029000AB81BC8180930E0190930F01A09310015C
:1002A000B093110180910E0190910F01A091100166
:1002B000B09111018093150190931601A09317013D
:1002C000B09318010F900F900F900F90DF91CF9186
:1002D0000895CF93DF93CDB7DEB78CE790E02CE79E
:1002E00030E0F90120812064FC0120838AE790E05E
:1002F0002AE730E0F90120812768FC012083DF91A3
:10030000CF910895CF93DF931F92CDB7DEB7898346
:100310008981877089838CE790E02CE730E0F901D0
:100320002081322F387F2981232BFC0120838AE70B
:1003300090E02AE730E0F90120812064FC0120836D
:1003400000008AE790E0FC018081882F90E08074B3
:1003500099270097B1F788E790E0FC0180819181AF
:100360000F90DF91CF910895CF93DF93CDB7DEB794
:10037000809120019091210181309105C9F0813057
:10038000910520F08230910541F15BC010921D0172
:1003900010921C011092220181E090E090932101C3
:1003A0008093200188E290E023E0FC01208349C093
:1003B00088E290E021E0FC01208380911C01909173
:1003C0001D018538F3E09F0738F082E090E09093BC
:1003D00021018093200135C034C088E290E022E002
:1003E000FC012083809122018823A9F48BE290E014
:1003F0002BE230E0F901308120911201232BFC0126
:10040000208381E08093220181E090E0909321019C
:100410008093200115C080912201813089F48BE204
:1004200090E02BE230E0F90120812E7FFC01208357
:100430001092220181E090E09093210180932001AD
:100440000000DF91CF910895CF93DF93CDB7DEB752
:1004500080911E0190911F0181309105C9F081307A
:10046000910520F08230910541F15BC0109224018A
:10047000109223011092250181E090E090931F01DA
:1004800080931E0188E290E023E0FC01208349C0B4
:1004900088E290E021E0FC0120838091230190918B
:1004A00024018538F3E09F0738F082E090E09093D4
:1004B0001F0180931E0135C034C088E290E022E025
:1004C000FC012083809125018823A9F48BE290E030
:1004D0002BE230E0F901308120911301232BFC0144
:1004E000208381E08093250181E090E090931F01BB
:1004F00080931E0115C080912501813089F48BE223
:1005000090E02BE230E0F90120812D7FFC01208377
:100510001092250181E090E090931F0180931E01CD
:100520000000DF91CF910895CF93DF93CDB7DEB771
:1005300081E290E0FC01108282E290E02FEFFC016A
:1005400020838AE290E02FEFFC0120838AE290E092
:10055000FC01108287E290E02FEFFC01208388E20B
:1005600090E0FC01108210921F0110921E01109267
:1005700021011092200168EC70E080E090E00E9480
:100580003C010E9490000E94690180E00E9482016B
:1005900090931D0180931C0181E00E948201909341
:1005A0002401809323010E94B4010E9424020000D0
:1005B000809114018823E1F310921401E6CFF8949E
:0205C000FFCF6B
:1005C20000000002000000006700000000000100BF
:0405D2000000010222
:00000001FF
