:100000000C9446000C9465000C9465000C946500FB
:100010000C9465000C9465000C9465000C946500CC
:100020000C9465000C9465000C9465000C946500BC
:100030000C9465000C94A3000C9465000C9465006E
:100040000C9465000C9465000C9465000C9465009C
:100050000C9465000C9465000C9465000C9465008C
:100060000C9465000C9465000C9465000C9465007C
:100070000C9465000C9465000C9465000C9465006C
:100080000C9465000C9465000C94650011241FBE4F
:10009000CFEFD0E4DEBFCDBF11E0A0E0B1E0EEE5F0
:1000A000F2E000E00BBF02C007900D92A231B10751
:1000B000D9F711E0A2E1B1E001C01D92A931B10769
:1000C000E1F70E9403010C942D010C940000CF93E2
:1000D000C82F8A3019F48DE00E9467009091C0000B
:1000E00095FFFCCFC093C60080E090E0CF910895CB
:1000F0008BE0809381008DE790E09093890080935E
:10010000880082E080936F00109285001092840036
:100110008091000190910101A0910201B091030131
:100120008093140190931501A0931601B0931701C9
:100130008FB780688FBF089510928100089581E085
:100140008093180108951F920F920FB60F921124F9
:100150000BB60F922F933F934F935F936F937F93C1
:100160008F939F93AF93BF93EF93FF93809114016D
:1001700090911501A0911601B09117010197A10965
:10018000B1098093140190931501A0931601B093C7
:100190001701892B8A2B8B2B91F40E949F00809151
:1001A000000190910101A0910201B091030180939F
:1001B000140190931501A0931601B0931701FF91BC
:1001C000EF91BF91AF919F918F917F916F915F91CF
:1001D0004F913F912F910F900BBE0F900FBE0F903C
:1001E0001F901895609300017093010180930201A4
:1001F000909303016093140170931501809316018D
:100200009093170108958FEF84B915B88AB91BB878
:1002100087B918B868EE73E080E090E00E94F200C1
:100220000E94780081E088B985B98BB988B1880FC0
:1002300088B98BB1880F8BB988B1811102C081E078
:1002400088B98BB1811102C081E08BB9809118010E
:0E0250008823E1F310921801E9CFF894FFCF54
:10025E000100000000000002000000006700000026
:02026E0000008E
:00000001FF
